:100000000C941E020C946F1D0C94481D0C94211D21
:100010000C94FA1C0C9446020C9446020C94D31CCB
:100020000C9446020C9446020C94461F0C94B81F84
:100030000C9446020C9446020C9446020C94460220
:100040000C9446020C9446020C9446020C94460210
:100050000C9446020C9446020C9446020C94891CA3
:100060000C9446020C9446020C9446020C944602F0
:100070000C9446020C9446020C9446020C944602E0
:100080000C9446020C9446020C9446020C944602D0
:100090000C943F070C9446020C9446020C944602C2
:1000A0000C9446020C9446020C944602A91EAC1E07
:1000B0009B1E9F1EA51ECD1ECD1ECD1EB01EB41EA6
:1000C000B81EBE1EC21ECD1EC81E313031303130AA
:1000D00031303200000000000000000000006536F2
:1000E0006234376137302D636361352D34643530C8
:1000F0002D386361392D62393532646230386435A8
:1001000030640000202E2C3031323334353637380D
:10011000394142434445464748494A4B4C4D4E4F6E
:10012000505152535455565758595A616263646539
:10013000666768696A6B6C6D6E6F707172737475E7
:10014000767778797A212224255E262A28295F2D40
:100150002B3D40273B3A237B2F3F5C7C3C3E237B5F
:100160007D7E0050617373776F72640050696E20FA
:10017000696E636F72726563740043616E63656C70
:100180000050726F63656564004F4E00594553001F
:1001900020545255450046414C534500204E4F00D7
:1001A0004F4646005B2E2E5D001200030203030241
:1001B0000504050900FF08FE08FE0000000000B26B
:1001C000200580D8012A0AADD191259541690B2BD4
:1001D0000AADD11546831446002C07DBCFA394004B
:1001E0002D068DD331082E08DBCF932C09002F0864
:1001F000BDD059EB1802300BBDD09525355B528B25
:1002000000310ABDD0954949D83408320BBDD0B36E
:1002100064612465E120330BBDD0318859A66AC9D9
:1002200002340CBDD09749492919B43001350BBDB2
:10023000D0714C4CA1962C00360BBDD02565616267
:10024000D29205370BBDD031885998153300380C40
:10025000BDD0B3645AB2645AB200390CBDD0B36495
:1002600092A2845924013A0AFBCF932C69B224004C
:1002700000000004FFFF000000E000F000F800FCB8
:1002800000FEFFFFFFFF00FE00FC00F800F000E0B2
:10029000FFFF7FFF1C00070001600038003801C02D
:1002A00007001C007FFFFFFF000000002400270064
:1002B0002A002D00300000000000250028002B003F
:1002C0002E003100000000002300260029002C0031
:1002D0002F000404040404030405020202020403C0
:1002E00002020202060606060606040402020204D0
:1002F0000404080201104080401020408040800823
:100300000204018040201002011080102040402093
:100310000000000200090F0000030401000C0000AF
:100320000000000000000000000000000000080BBA
:10033000000202020100090400000102020000059F
:1003400024001001052401010104240206052406ED
:1003500000010705810310004009040100020A00A2
:10036000000007050202400000070583024000006C
:100370000403090412010002EF0201404F1B069220
:10038000000101020301537061726B46756E0053E8
:100390007061726B46756E2050726F204D6963728A
:1003A0006F003A2D3A2D3A2D3A00312D312D312D55
:1003B0003100302D302D302D3000B203AA03A203BE
:1003C000383031333720313338333100000000000A
:1003D000000000000100FFFF6400000000000100B9
:1003E0000000000000303031313030353500000081
:1003F0000000000000000000000200FFFF020000FB
:1004000000BA03332D332D332D33000000000000DC
:10041000000000000000000300FFFF0100000002D8
:10042000636C6F73650063616E63656C0061636329
:10043000657074006F6B00004430EF2D11241FBEF7
:10044000CFEFDAE0DEBFCDBF12E0A0E0B1E0E0E93F
:10045000FDE602C005900D92AC37B107D9F729E04F
:10046000ACE7B2E001C01D92A935B207E1F712E096
:10047000CDE1D2E004C02197FE010E944533CC318A
:10048000D107C9F70E94F32D0C94BB360C940000E1
:1004900085ED8093BC008091BC0084FDFCCF109260
:1004A0002E0308954091E002262F30E0240F311DE5
:1004B00021323105DCF420912E032430C9F4FC01F3
:1004C00080E090E0861758F43091E0022191DC0141
:1004D000A054BD4FA30FB11D2C930196F3CF809173
:1004E000E002680F6093E00280E0089581E00895E3
:1004F00082E008950895E091300380912F03E8177A
:1005000030F4F0E0EF5CFC4F808190E008958FEFD5
:100510009FEF08959091300380912F03981750F426
:10052000E92FF0E0EF5CFC4F208130E09F5F90937B
:10053000300302C02FEF3FEFC901089580912F03D0
:1005400090E020913003821B91090895CF92DF92B1
:10055000EF92FF920F931F93CF93DF937C01CB0118
:100560008A0120910703222389F0EB016B01C40E5D
:10057000D51ECC15DD0569F06991D701ED91FC918F
:100580000190F081E02DC7010995F3CF642F0E94FF
:100590005202C801DF91CF911F910F91FF90EF9010
:1005A000DF90CF900895CF93DF931F92CDB7DEB742
:1005B0006983209107032223D1F020910403203284
:1005C00040F021E030E0FC013383228380E090E0C2
:1005D00015C080910503E82FF0E0E056FD4F9981AA
:1005E00090838F5F809305038093040305C061E0CF
:1005F000CE0101960E94520281E090E00F90DF91BF
:10060000CF9108950895CF92DF92EF92FF920F93CA
:100610001F93CF93DF936C01EB017B01E40EF51E7A
:1006200000E010E0CE15DF0561F06991D601ED9193
:10063000FC910190F081E02DC6010995080F191F6A
:10064000F1CFC801DF91CF911F910F91FF90EF90F3
:10065000DF90CF90089580E090E00895CF92DF92F0
:10066000EF92FF92CF93DF93EC01683109F467C0FA
:1006700038F46431C9F0673109F0B2C0F9010DC036
:10068000693109F49BC0603209F0AAC06AE4A4C0D1
:100690000DB407FEFDCF8EB54150442309F4A2C02E
:1006A00081918EBD0000F4CF8C859D85AE85BF8580
:1006B000E881F981892B8A2B8B2B41F480859185E8
:1006C000A285B3858C879D87AE87BF87418169E40A
:1006D000CE010E94A00FCFB7F8948091030381113F
:1006E00027C0E3EEF2E08491E2E0F3E09491E82F9A
:1006F000F0E0EE0FFF1FE855FD4FA591B491EC918E
:10070000E92321F461E081E10E941F2261E081E19F
:100710000E944E228CB580618CBD8CB580648CBDEE
:1007200061E08FE00E944E2261E080E10E944E2253
:10073000809103038F5F80930303CFBF53C0E88191
:10074000F981E485E150E33028F4F0E0E85DFE4F04
:10075000808101C080E0CC84DD84EE84FF8440E0B1
:1007600052E16AE770E020E0C416D506E606F70617
:1007700040F476956795579547952F5F2630A1F7FA
:1007800027E091E092278C708065292F2695822B97
:1007900091708CBD9DBDE881F981408169E4CE01F5
:1007A0000E94A00FA881B981EA85FB8520E030E096
:1007B00012964C916CE2CE01099514C0A881B981C2
:1007C000EA85FB8520E030E013964C916CE20995B8
:1007D000E881F981418169E4CE010E94A00F02C045
:1007E00080E001C081E0DF91CF91FF90EF90DF903A
:1007F000CF9008950F931F93CF93DF93EC01862F33
:10080000642F8C3270F48A3208F05DC0883289F02F
:10081000893209F042C070E080E090E00E948A22B4
:1008200052C08D32D1F0C8F194EB980F923020F184
:1008300034C08E01015E1F4FD0E0F80181918F011D
:100840008F3F39F0D03110F461E001C062E00E94C6
:100850004E22DF5FD63189F736C0433018F082E090
:1008600090E002C085E090E0880F991F880F991FE3
:1008700005970197F1F727C08F73C80FD11D41115C
:1008800007C061E08F8D0E944E2260E08F8D11C005
:1008900062E08F8D0E944E2216C08034B0F0982FF7
:1008A0009F73FE01E90FF11D878D8F3F61F090313D
:1008B00018F40E941F2207C00E94F62121E0892B14
:1008C00009F420E02A8F81E001C080E0DF91CF9120
:1008D0001F910F9108950C94FA35CF93DF93EC019B
:1008E0008A899B89892B29F58DE090E00E946235E9
:1008F000FC01138212828385982F9D7F9387118636
:10090000108622E231E031832083A0912604B09149
:10091000270457960D90BC91A02DAA5BBF4F2C9138
:10092000243618F49160938702C08C7F8387FB8BF9
:10093000EA8B8A899B89DF91CF9108952F923F920C
:100940004F925F926F927F928F929F92AF92BF92DF
:10095000CF92DF92EF92FF920F931F93CF93DF938B
:1009600000D000D0CDB7DEB77C016C0124E0C20E10
:10097000D11CFC01E158FF4F0190F081E02DC60130
:1009800009958C018E3F9F4F08F0D5C0F701EE57B7
:10099000FF4F80818983570191E8A90EB11CF501B1
:1009A000F081FA83F701EE5AFF4F0190F081E02DBC
:1009B000C6010995F701EA5AFF4F2A812083319633
:1009C0003981830F8083B801C6010E94612300979B
:1009D00009F4ACC0F701EC5AFF4FFC83EB83BC0178
:1009E000C6010E943823F701E55AFF4F40803B962D
:1009F00060818B819C810E942A23082FF701E9598D
:100A0000FF4F60818B819C810E942A23182FF70160
:100A1000E859FF4F60818B819C810E942A23898342
:100A2000EB81FC81268112160CF07EC06281600F82
:100A3000628343814419411B4383042D040F260F15
:100A4000C6010E94B910882309F46EC0EB81FC81B5
:100A50001482158287010E591F4F4701F3E68F0E4E
:100A6000911C2DE7E20EF11CF80160818B819C81C5
:100A70000E94C4228A83F40160818B819C810E9440
:100A8000C422382EEB81FC81748065805A80EB8112
:100A9000FC8126802718818581110EC062814381E7
:100AA0008385F7018083222D521408F4252D460DED
:100AB000670DC6010E94F122521420F0521863946F
:100AC000712CE5CF750CEB81FC8174826582532C0F
:100AD000EB81FC8126802718628143818285F701A2
:100AE0008083222D521408F4252D460D670DC60172
:100AF0000E94F122521420F052186394712CE8CF16
:100B0000750CEB81FC817482658261E0CF010E94EB
:100B1000C4228111B7CFEB81FC81858184150CF44F
:100B2000A3CF8285F7018083898101C080E0F50130
:100B30009081890F808381E090E00F900F900F905B
:100B40000F90DF91CF911F910F91FF90EF90DF9069
:100B5000CF90BF90AF909F908F907F906F905F905D
:100B60004F903F902F900895FC01E60FF11D849166
:100B700090E0982F88273196E4918E0F911D08956B
:100B8000AF92BF92CF92DF92EF92FF920F931F939B
:100B9000CF93DF9300D000D01F92CDB7DEB78C018A
:100BA000DC01DB96AC90DB97DC96EC90DC97ED916A
:100BB000FC91B188FE2CC12CD12CD801ED91FC9177
:100BC00011978089D9964D915C91DA971C82FD82AC
:100BD0008B83B8E08B9FC00111248C9D90018D9D6B
:100BE000300D9C9D300D1124CA01820F931F9A83F2
:100BF0008983D8011496ED91FC9115979E012F5F82
:100C00003F4F41E06FE0C8010995F3948F2D8E1995
:100C10008A1528F4BFEFCB1ADB0AFB1470F20F9091
:100C20000F900F900F900F90DF91CF911F910F9128
:100C3000FF90EF90DF90CF90BF90AF9008952F92EC
:100C40003F924F925F926F927F928F929F92AF925C
:100C5000BF92CF92DF92EF92FF920F931F93CF93A9
:100C6000DF93CDB7DEB76C970FB6F894DEBF0FBE3B
:100C7000CDBF4C013B01E0912604F0912704E18CAB
:100C8000F28CA788B08CFC01848595012C5F3F4FC6
:100C90006901F501EA5BFF4FFE8BED8B823089F431
:100CA000F7016485C9010E94842AF501E95BFF4FC1
:100CB0000081ED89FE89208140E060E0C6010E944C
:100CC0008E2AF70166897789C6010E94B42AF40149
:100CD0006281738144E1CE0101960E94D612F70130
:100CE00084898F70F501E659FF4F2080022C000C9B
:100CF0003308F70190859F702101490E511C9185A1
:100D00009F709201290F311D388F2F8B26893789CB
:100D1000232B09F4482EF7016081C6010E94842A22
:100D20000F89ED89FE89208140E060E0C6010E94C4
:100D30008E2AF7016481C6010E94842A95012F57EB
:100D40003F4F3A8F298FF701818582958F70F90186
:100D500080832F5F3F4F3C8F2B8FF9014082BE0174
:100D60006F5F7F4FC5010E946F2AF70184A54F88EE
:100D7000588C480E511C84898F70240C351C90852A
:100D80009F70290E311C91859F708101090F111DE3
:100D900026893789232B19F41201280E311CF701FB
:100DA0006485C6010E94842AED89FE892081442D34
:100DB00060E0C6010E948E2AF7016089C6010E9488
:100DC000842AF701818582958F70E98DFA8D808361
:100DD000EB8DFC8D2082E0912604F0912704628146
:100DE0007381C5010E946F2AF4018085882391F0E8
:100DF000930140E050E0BE016F5F7F4FC4010E944D
:100E0000AB2D082F20E0AE014F5F5F4FB701C5014A
:100E10000E94082DF4018185882391F0930141E01F
:100E200050E0BE016F5F7F4FC4010E94AB2D082FC1
:100E300021E0AE014F5F5F4FB701C5010E94082D51
:100E4000C6010E94C005C6010E94AF106C960FB685
:100E5000F894DEBF0FBECDBFDF91CF911F910F91F0
:100E6000FF90EF90DF90CF90BF90AF909F908F90CA
:100E70007F906F905F904F903F902F9008951F92BA
:100E80000F920FB60F9211242F933F934F935F93BE
:100E90006F937F938F939F93AF93BF93EF93FF9342
:100EA0008091B900887F803609F49CC068F588324B
:100EB00009F45BC090F4803109F454C038F48823FD
:100EC00009F4F2C0883009F44DC0F2C0883109F449
:100ED0004CC0803209F45DC0EBC0803409F468C0B6
:100EE00048F4803309F455C0883309F0E1C0809399
:100EF0002C03D4C0803509F44FC0883509F45DC097
:100F0000883409F0D5C0D2C0883909F4C3C0A8F428
:100F1000883709F467C038F4883609F463C080372D
:100F200009F460C0C5C0883809F4B4C0803909F438
:100F30005FC0803809F0BCC05BC0803B09F484C04E
:100F400038F4803A09F466C0883A09F47DC0B0C02C
:100F5000803C09F4A3C0883C09F4A0C0883B09F494
:100F600086C0A6C08091290310C090912B03809168
:100F70002A03981770F5E0912B0381E08E0F809380
:100F80002B03F0E0E85FFC4F80818093BB0085EC91
:100F900082C080932C038AC0E0912B0381E08E0FE6
:100FA00080932B038091BB00F0E0E85FFC4F8083CF
:100FB00090912B0380912A036AC0E0912B0381E07A
:100FC0008E0F80932B038091BB00F0E0E85FFC4F15
:100FD000808380912D03811169C081E08093280373
:100FE00084EA5DC083E080932E0310920203CFCF8A
:100FF00080910203803208F04DC0E091020381E04D
:101000008E0F809302038091BB00F0E0EE51FD4F04
:101010008083BDCF85EC8093BC0010922E0380911D
:101020000203803230F4E0910203F0E0EE51FD4F14
:1010300010826091020370E082EE92E0E0E0F0E066
:1010400009951092020334C084E080932E0310921D
:10105000E1021092E002E0E0F0E009958091E00208
:10106000811105C081E08093E0021092C002E091FE
:10107000E10281E08E0F8093E102F0E0E054FD4F49
:1010800080818093BB009091E1028091E0029817EB
:1010900008F47DCF85E88093BC000AC085EC80937E
:1010A000BC0010922E0304C010922C030E94480230
:1010B000FF91EF91BF91AF919F918F917F916F9130
:1010C0005F914F913F912F910F900FBE0F901F9006
:1010D000189530910403313208F04AC080912E03F4
:1010E0008111FCCF9091060322E020932E036093A0
:1010F0002D032FEF20932C0310922B0330932A0300
:10110000E0EAF2E0A8E0B3E020E0321721F04191FC
:101110004D932F5FFACF1092290320912903990F45
:10112000922B9093290390912803913061F41092AF
:101130002803909129039093BB009091BC0093FDEC
:10114000F8CF95EC01C095EE9093BC0090912E03E2
:101150009230E1F390912C039F3F79F080912C0322
:10116000803241F080912C03803331F084E005C05F
:1011700081E003C082E001C083E010920503109279
:101180000403109207030895FC01828193810C945B
:10119000FA35CF93DF93EC010E94C408CE01DF91B2
:1011A000CF910C94FA35FC0120813181662311F036
:1011B000216001C02E7F31832083808191818260F4
:1011C0009183808308956F927F928F929F92AF92C6
:1011D000BF92CF92DF92EF92FF920F931F93CF9324
:1011E000DF93FC012789308D232B09F4E4C1EC0146
:1011F000B584158681859285009731F4CF010E94D0
:1012000027288FEF9FEF05C08F3FFFEF9F0719F053
:1012100001979A87898722E0B212E7C0E98DFA8D9B
:10122000668977898F89988D04960E94B42A8F8960
:10123000988DFC01EE5AFF4F2AE03CE03183208379
:1012400078962081022E000C330B3E8F2D8FE98D76
:10125000FA8D648504960E94842A8F89988DDC011A
:10126000A95BBF4FFC01EA5BFF4F0C91208140E07E
:1012700060E004960E948E2AE98DFA8D24892F70F1
:101280008D8D9E8D820F911D25892F70820F911D4E
:101290009E8F8D8F809193039091940340918F0343
:1012A000509190032A813B818417950739F44C8132
:1012B0006AEC70E0C9010E94D61205C04C8150E072
:1012C000B9010E94452AE98DFA8D628573858F895F
:1012D000988D04960E94B42A8F89988DFC01E85855
:1012E000FF4F21E02083B89720813181232BE9F043
:1012F0007D964081DC01A758BF4F4C9331962081E9
:101300008C0106581F4FF8012083BC0161597F4FA3
:10131000FB01308143170CF43C93DC01A059BF4F13
:101320008C91821714F4F80180832F89388DE98D10
:10133000FA8DD901A659BF4F8C9190859F70E92EE7
:10134000F12CE80EF11C87FDFA9491859F70A7019E
:10135000490F511D5C8F4B8F6081C90104960E941B
:10136000842A8F89988DFC01EA5BFF4F0B8D2081C9
:1013700040E060E004960E948E2AE98DFA8D8F8904
:10138000988D648104960E94842A8F89988DFC012F
:10139000EF57FF4FA98DBA8D19962C9122952F707A
:1013A00020833196E0826A817B818F89988D0E94AB
:1013B0006F2AE98DFA8D24A58B8D9C8D820F911D4E
:1013C0009C8F8B8F60E070E08BE993E00E94110CA2
:1013D00061E0CE010E94142C60E070E08BE993E0A4
:1013E0000E94110CAA24A39405C060E0CE010E94C3
:1013F000142CA82EE98DFA8D668977898F89988DAE
:1014000004960E94B42AEB8CFC8CEF89F88DE95B82
:10141000FF4F808190E08E199F096D8D7E8D0E9417
:1014200012336B010091930310919403F8018681AC
:10143000873931F4808181FD4BC0B11049C02DC086
:10144000C8010E94BF14AC01552728854C155D05C5
:101450006CF08C198F5F821711F092E0B92E88879B
:1014600001151105D1F0811183C006C02F3F11F085
:1014700082E0B82E8FEF88870115110571F02D8D50
:101480003E8D2E0D3F1DEF89F88DE95BFF4F80816A
:1014900090E0821793070CF070C0AA2009F48BC06B
:1014A0000F88D88DC02D2496CE010E94C005CE0194
:1014B000DF91CF911F910F91FF90EF90DF90CF9030
:1014C000BF90AF909F908F907F906F900C94AF10D3
:1014D000F80182858C1508F4C82EF801D384DC1439
:1014E00008F444C0D394DC18812C912CAC2CB12C82
:1014F00027E9C22E38E9732E66246A948A149B0465
:101500007CF5F8018385D1100AC061E0811160E0AB
:10151000C8010E94D308F8017682618611C02D2D82
:1015200030E021503109F801C682218790E001970F
:1015300061E08217930709F060E0C8010E94D308B8
:101540004D8D5E8D9801B701CE010E944E178D8D95
:101550009E8DE80EF91EFFEF8F1A9F0AD394CECF0F
:1015600087E9F80186838FEF81879ACFD12CBCCF92
:10157000F80102811381815073CFB1100CC0F801C2
:10158000808181FD08C08D8D9E8DE80EF91EF801C9
:101590000281138171CF60E070E08BE993E00E94DB
:1015A000110C4D8D5E8D9801B701CE010E944E1732
:1015B000AA24A394E8CFDF91CF911F910F91FF90C0
:1015C000EF90DF90CF90BF90AF909F908F907F90E3
:1015D0006F9008950895FC012485358550E080853D
:1015E000683038F42227422B532B5587448781607B
:1015F00006C0542F4427422B55874487826080873A
:101600000895FC01683010F482850895838508955B
:10161000FC018285938502C0969587956A95E2F7CD
:101620008170089581E0089580E00895DC011696A8
:10163000ED91FC91179720E030E040E069E10994DA
:10164000DC011696ED91FC91179720E030E040E028
:1016500068E109949A01DC011696ED91FC911797C7
:10166000462F67E10994462FDC011696ED91FC9117
:10167000179720E030E066E10994462FDC011696CA
:10168000ED91FC91179720E030E065E10994462F39
:10169000DC011896ED91FC91199720E030E060E2B2
:1016A0000994662329F06A3019F0862F90E0089596
:1016B0008FEF9FEF08950F93DC01DF963C91DF974A
:1016C000431BD596ED91FC91D69709950F910895FE
:1016D000CF93DF93FC01A081B18193AD892F880F57
:1016E000880F880F86AF50968C915097803208F003
:1016F0008FE1880F880F880F85AF24AD822F880F68
:10170000880F880F87AF51963C915197422F50E038
:10171000490F511D632F70E06417750714F4932F60
:10172000921BEF01C05CDF4F8883219628E0929FD7
:10173000800D11248883219680EF888354968D91A3
:101740009C915597813F910508F48883ED5BFF4F8D
:1017500056968C918083DF91CF910895EF92FF92FE
:101760000F931F93CF93DF93EC01742F7770E1E019
:10177000F0E0072E01C0EE0F0A94EAF73E2F7C013D
:1017800089E7E80EF11CD7018C91823028F41E2FD6
:10179000813019F430E001C010E050E0487F89AD9D
:1017A0009AADA881B9815096FC91F49FD001F59F24
:1017B000B00D1124A60FB11DA80FB91F01110BC048
:1017C0008C91812B83278D932150D1F71CC0110F51
:1017D000330F2223C1F09C91912B93279C937F5F21
:1017E000777021507111F3CF8DADA80FB11DF701A6
:1017F0008081823020F4813021F031E002C031E07C
:10180000E8CF11E0E6CFDF91CF911F910F91FF90CC
:10181000EF9008958A589F4FFC018081089580E0E1
:1018200008958F929F92AF92BF92CF92DF92EF92E4
:10183000FF92CF93DF93EC016B010E94581C4B0188
:101840005C01E12CF12C60E0CE010E94FA280E949C
:10185000581CDC01CB0188199909AA09BB098C1510
:101860009D05AE05BF0578F3DF91CF91FF90EF9016
:10187000DF90CF90BF90AF909F908F9008950C9481
:10188000FA350C94FA350C94FA350C94FA35CF925B
:10189000DF92EF92FF920F931F93CF93DF93EC01B0
:1018A0008091F0039091F1030E9401246C85809156
:1018B000F0039091F1030E94FA23182F6D85809117
:1018C000F0039091F1030E94FA23082F8E851817D8
:1018D00009F46FC01E878F85081709F46AC00F8747
:1018E000112309F466C00E94581C6B017C01888595
:1018F0009985AA85BB85A7019601281B390B4A0B40
:101900005B0BDA01C901813930ED930733E0A3079E
:10191000B105D0F42A813B8120323105A8F0813C09
:1019200044ED940741E0A407B10580F4813751E10B
:10193000950751E0A507B10558F481339547A105F6
:10194000B10540F42AE007C021E005C022E003C051
:1019500024E001C026E08C819D81101721F02195A3
:10196000009769F422C0820F911D2A813B812817BC
:101970003907D8F09D838C83EE81FF8115C0022E3C
:10198000000C330B44275527421B530BEE81FF817C
:101990008417950728F41D821C8280E090E004C023
:1019A000820F931F9D838C830995C886D986EA860A
:1019B000FB86DF91CF911F910F91FF90EF90DF9009
:1019C000CF9008950C94B9240F931F93CF93DF9376
:1019D000809125048460809325040E94B924882383
:1019E00049F10E940F248F3F51F19BE0899FE00154
:1019F00011248E0105561C4F84E190EAF80193836F
:101A000082838AE49DE09187808714860E947D1CF2
:101A1000F801648375838683978313861286BE01DB
:101A200063567C4F8BE993E0DF91CF911F910F912B
:101A30000C945828809125048B7F80932504DF9196
:101A4000CF911F910F9108950F931F93CF93DF9321
:101A50008091250481FF04C08091250482FF17C076
:101A6000C8EED3E000EF13E089919991009739F027
:101A7000DC01ED91FC910480F581E02D09950C17B6
:101A80001D0791F7DF91CF911F910F9108950E944B
:101A9000E40CE6CF0C94E40CAF92BF92CF92DF92AD
:101AA000EF92FF920F931F93CF93DF93EC018D8101
:101AB0008F3F09F494C09F81963031F0943039F013
:101AC000E12C923041F005C072E0E72E04C032E014
:101AD000E32E02E001C003E0A22E6A01B62EFE80D2
:101AE00010E09FEF6E2DF9121EC00E944E228D81D4
:101AF000882359F0813061F0823069F0833071F0D1
:101B0000873069F484E0F82E0AC022E0F22E07C084
:101B100093E0F92E04C0FF24F39401C0F12CA80136
:101B2000B6018F2D38C00E944E226E2D8E810E94EC
:101B30004E228D81882351F0813051F0823051F056
:101B4000833051F0873051F08FEF09C082E007C039
:101B500083E005C081E003C080E001C084E0A8010B
:101B6000B6010E94961D8E81882351F0813051F07C
:101B7000823051F0833051F0873051F08FEF09C03F
:101B800082E007C083E005C081E003C080E001C0BF
:101B900084E0A801B6010E94961D21E04B2D64E06F
:101BA000CE010E94642421E0A21201C020E04B2D4E
:101BB00068E0CE010E94642421E082E0A81220E0C7
:101BC0004B2D66E0CE01DF91CF911F910F91FF90D9
:101BD000EF90DF90CF90BF90AF900C946424DF9192
:101BE000CF911F910F91FF90EF90DF90CF90BF901A
:101BF000AF9008951F93CF93DF93EC0189858823DD
:101C000019F0CE010E9444249885892F827090FF9C
:101C10000CC0882339F04C855D8564E1CE010E94BB
:101C2000831B0AC04C8564E104C0882339F04D85CC
:101C300065E1CE010E94BE1B182F01C011E088850E
:101C4000982F9C7F9887982F987082FF0EC062E132
:101C5000992321F0CE010E94ED1B04C0CE010E9409
:101C60008C2490E09B878A8708C0992331F063E138
:101C7000CE010E948C241A868B87812FDF91CF9111
:101C80001F9108950F931F93CF93DF93EC01162FAD
:101C9000042F8985882319F0CE010E9444242C85C5
:101CA0003D8581E090E0A0E0B0E0012E04C0880F07
:101CB000991FAA1FBB1F0A94D2F7002319F0822B89
:101CC000932B04C080959095822393239D878C87C6
:101CD00021E0183008F420E081E090E0A0E0B0E0DE
:101CE00004C0880F991FAA1FBB1F2A95D2F7288509
:101CF000822B8887DF91CF911F910F9108950F93C9
:101D00001F93CF93DF93EC01162F042F898588232F
:101D100019F0CE010E94442421E0002319F0023082
:101D200009F020E0412F60E0CE010E94642421E010
:101D3000023009F020E0412F6CE0CE010E946424C3
:101D40008885183010F098E001C094E0892B8887CE
:101D5000DF91CF911F910F910895CF93DF931F9241
:101D6000CDB7DEB76983BE016F5F7F4F0E947A1BDC
:101D70000F90DF91CF910895EF92FF920F931F93F1
:101D8000CF93DF93EC01162F042F7901663159F0C0
:101D900028F46431A9F0653131F01FC0673169F072
:101DA0006A31D8F40DC060E0CE010E94470B602F6D
:101DB000CE010E94AD0E81E011C061E00E94470B90
:101DC000E885F9859701402F612FCE01DF91CF91F2
:101DD0001F910F91FF90EF90099480E0DF91CF91D8
:101DE0001F910F91FF90EF900895CF92DF92EF92A5
:101DF000FF920F931F93CF93DF938C01FC016081BF
:101E00007181CB0188279073EB01D770009701F5A2
:101E10000E94581CF80102811381248135816B01D5
:101E20007C01C01AD10AE20AF30ACE01A0E0B0E0B8
:101E30008C159D05AE05BF0524F460E070E0CB0174
:101E400030C0BC01CD016C197D098E099F0929C0E4
:101E50006E01E12CF12C8115904139F49E01A8EE20
:101E6000B3E00E944B336B017C010E947D1CF801A2
:101E70000281138124813581DC01CB01801B910B10
:101E8000A20BB30BC816D906EA06FB06B0F2A701EF
:101E90009601281B390B4A0B5B0BA8EEB3E00E949E
:101EA0005A33DF91CF911F910F91FF90EF90DF9008
:101EB000CF9008950895CF93DF93DC018C9187FF35
:101EC00010C016968D919C911797EC01E881F981CD
:101ED0000280F381E02D462F12966C91DF91CF9115
:101EE00009941896ED91FC911997309729F0129664
:101EF0008C91DF91CF910994DF91CF910895CF9389
:101F0000DF93EC01AE81BF811097A1F0888187FF3C
:101F10000CC0ED91FC9111970190F081E02D462FBE
:101F20006A81CD01DF91CF9109948A81FD01DF9112
:101F3000CF910994DF91CF91089508950895089560
:101F4000DC011A96ED91FC911B9720E030E009949A
:101F5000EF92FF920F931F93CF93DF931F92CDB712
:101F6000DEB77C018B01D8016C916731E1F078F428
:101F70006531A0F1F80141814983D7011696ED91B1
:101F8000FC91179720E030E0C701099524C06A3121
:101F9000A8F06E3F19F5F8014181498369E2C70154
:101FA0000E94A00F18C0F80181818983AE014F5FA4
:101FB0005F4F61E0C7010E942A0B0DC00F5F1F4FEA
:101FC000D7011696ED91FC91179720E030E040E0A4
:101FD000C7010995C8CF0E5F1F4FC5CF0F90DF9186
:101FE000CF911F910F91FF90EF900895EF92FF9284
:101FF0000F931F93CF93DF93EC01142F79016D3072
:10200000A9F118F46B3039F15FC06E3009F441C0AA
:102010006F3009F059C00E94200BF70183810C89B1
:10202000F8E08F9F000D112460E4CE010E943D0B6B
:10203000602F62956F706061CE010E943D0B602F32
:102040006F70CE010E94330BF7016481606BCE018B
:102050000E94330B29C0411103C06EE371E002C03E
:1020600069E371E0CE010E94A80F71C0411108C060
:1020700062E371E00E94A80FE881F981828907C0BC
:102080006BE271E00E94A80FE881F98183898C8B53
:102090005EC00E94200B61E8CE010E943D0B612FC3
:1020A000CE010E94330B0CC0F70140815181628147
:1020B000660F660F660FCE010E942A0B1150A1F722
:1020C000CE010E94160B43C0693031F488E791E0DD
:1020D0009983888382E0DBCF6A30B9F5EA85FB8596
:1020E00020E030E040E068E2CE010995EE81FF811A
:1020F00020E030E040E064E1CE01099541E06BE48E
:10210000CE010E94A00FE881F981448169E2CE01ED
:102110000E94A00F40E06BE4CE010E94A00FE88176
:10212000F981448169E2CE010E94A00F41E06BE495
:10213000CE010E94A00FE881F981458169E2CE01BC
:102140000E94A00F63E471E08DCF80E001C081E0C8
:10215000DF91CF911F910F91FF90EF900895DC01D7
:102160001496ED91FC91159720E030E040E060E19D
:1021700009940F93FC01EA5BFF4F30813196508147
:10218000451728F4301730F0041720F010C030172E
:10219000D8F30DC0FC01EC5BFF4F3081319680819C
:1021A000681738F4321740F081E0261730F080E0ED
:1021B00004C03217C8F3FBCF81E00F9108952F922E
:1021C0003F924F925F926F927F928F929F92AF92C7
:1021D000BF92CF92DF92EF92FF920F931F93CF9314
:1021E000DF93EC014C0184E4880E911CF401108211
:1021F000329720805E01F5E4AF0EB11CF50120821C
:10220000359730806E01F6E4CF0ED11CF601308296
:10221000359740807E01F7E4EF0EF11CF701408214
:10222000349610813297608031967080329750805A
:10223000012F262D472D652DCE010E94B910CD58B6
:10224000DF4F811102C0188212C081E088835520BF
:1022500011F0F4015082621410F4F5016082371419
:1022600010F4F6017082141510F4F7011083DF9159
:10227000CF911F910F91FF90EF90DF90CF90BF9083
:10228000AF909F908F907F906F905F904F903F9016
:102290002F900895CF92DF92EF92FF920F931F93AA
:1022A000CF93DF93CDB7DEB72F970FB6F894DEBF8D
:1022B0000FBECDBFDC01942F16968C9116978939ED
:1022C00009F0D2C0A801F9017D01913049F030F048
:1022D000923009F4CCC0933081F0C6C010820AC09D
:1022E000611103C06AE771E002C061E871E0CF01EB
:1022F0000E94C23281E090E0BCC01B968D919C91FF
:102300001C97892B09F4AAC0809197039091980398
:10231000892B79F48AE290E00E9462358C01609109
:10232000990370919A030E94A92510939803009332
:102330009703E0919703F091980380A591A5638599
:102340007485DC01ED91FC910480F581E02D099507
:10235000882321F0F7018385948584C080919103BF
:1023600090919203DC01ED91FC910480F581E02DC8
:1023700009958C01FC01108684E08187E091E803D7
:10238000F091E903309751F0138212821582148282
:102390000680F781E02D80E090E00995D8011C9639
:1023A0008C911C97823019F081E01C968C934FE041
:1023B00050E0BE016F5F7F4FF701838594850E94D7
:1023C000452AD8011B968C911B978B7F8A6F1B9691
:1023D0008C931B978CE691E013969C938E931297A7
:1023E00015961C921E92149782E01C968C93E09195
:1023F0002604F0912704C280D380E480F12CA70149
:10240000BE016F5F7F4FC6010E94AC36F60101909E
:102410000020E9F73197EC19FD09D8011B968C9142
:1024200080FD0BC0EC0DFD1D80E29F012C193D09C4
:102430002E153F0514F48193F8CFF601EE0DFF1D24
:102440001082F8018485823011F081E08487D80100
:102450001B968C911B97886F1B968C9380918F0392
:10246000909190030E94F41A80E090E002C08FEFF8
:102470009FEF2F960FB6F894DEBF0FBECDBFDF9152
:10248000CF911F910F91FF90EF90DF90CF90089523
:10249000CF93DF93EC0160E00E94D30860E0CE01AF
:1024A000DF91CF910C94CF27EF92FF920F931F9360
:1024B000CF93DF9300D0CDB7DEB7182F092F8091CF
:1024C000910390919203DC01ED91FC910280F381E4
:1024D000E02D40E0612F702F099581115EC0E090E2
:1024E0009503F0909603E114F10431F1F701868130
:1024F0008436E0F0883C00F1808191818260918394
:102500008083C7010E94C12719830A83D7011496CB
:10251000ED91FC91159702E010E09E012F5F3F4F77
:1025200044E019966C91C701099537C0612F702F4F
:10253000C7010E947A2531C0E0919303F091940382
:102540008681873939F413878081918182609183F4
:10255000808323C0DF01109749F08C9180FD05C076
:1025600012960D90BC91A02DF6CFFD0160E0CF0139
:102570000E94D3088091930390919403FC0120E082
:10258000309741F0121729F02F5F0280F381E02D80
:10259000F7CFCF0161E00E94D3080F900F90DF9139
:1025A000CF911F910F91FF90EF900895CF93DF93FC
:1025B000EC01FB01949150E0415051098E2F861B94
:1025C000282F30E0992351F0241735073CF4DE0121
:1025D000A20FB31F9C9331969491F0CFFE01E20FAE
:1025E000F31F1082DF91CF910895FC0142505109F1
:1025F00020E030E0DF0131967C91772331F0241721
:10260000350719F02F5F3F4FF5CF6C93FC01E20FB8
:10261000F31F118208959F92AF92BF92CF92DF92E3
:10262000EF92FF920F931F93CF93DF93423071F09D
:10263000433009F45BC06901EC01413051F4402F93
:1026400063E671E0C9010E94D61250C08FEF9FEF80
:10265000C6C08E81883C09F0BDC0443009F45EC01C
:1026600030F4442359F0413009F499C0B3C04530E7
:1026700009F443C0463009F499C0ACC0D9011C929A
:102680006150A12CB12CE62EF12C8A8590E0A81681
:10269000B90664F5EB85FC85EA0DFB1D9080AE1450
:1026A000BF0491F4A8016BE5C6010E94F512A801D0
:1026B000692DC6010E94F512A8016DE5C6010E94B0
:1026C000F512911016C012C0992059F08D85811114
:1026D00002C0692D01C06AE2A801C6010E94F5127C
:1026E00008C0A80160E0C6010E94F51281E090E0F8
:1026F00076C0BFEFAB1ABB0AC8CF70E0615071095A
:10270000623071050CF469C0EB85FC856E0F7F1F8C
:10271000FB0131978081811160C05CC070E0615025
:102720007109D901EC910E2E000CFF0B77278A85D9
:102730003097B9F490E0019768177907BCF68B855C
:102740009C85FC01E60FF71F1082CE010E94E61D5A
:1027500088819981826099838883CE010E94C127F4
:10276000C5CFED5FFE4FE49190E0019768177907C0
:102770009CF48B859C85DC01A60FB71FEC93CE01E2
:102780000E94E61D88819981826099838883CE01A9
:102790000E94C12781E001C080E090E020C02115A7
:1027A000310509F4A3CFF9011082A0CFEB85FC8598
:1027B000E60FF11D3197208180E090E0222379F02F
:1027C000FC01EC5FFE4FE49101962E1741F08E352F
:1027D0009105B1F780E090E002C08EE590E0DF91D6
:1027E000CF911F910F91FF90EF90DF90CF90BF900E
:1027F000AF909F9008952F923F924F925F926F9269
:102800007F928F929F92AF92BF92CF92DF92EF9280
:10281000FF920F931F93CF93DF9300D000D000D08F
:10282000CDB7DEB71C014A015B01280139011E2D1D
:102830009601225031093C832B8377FF0CC0B09462
:10284000A09490948094811C911CA11CB11CA9019E
:102850006DE20E94F512C501B401A30192010E942C
:1028600026334B015C01C301B2012AE030E040E0B5
:1028700050E00E94263369017A01F1011E821D8217
:102880008191811107C000E08AE0482E512C612C13
:10289000712C35C08D819E812B813C8182179307DD
:1028A00094F701969E838D83EBCFED81FE812B8182
:1028B0003C81E217F307B4F5C501B401A701960105
:1028C0000E942633205DE981FA81208381E0203354
:1028D00009F480E0082B11111FC009F049C0C5019F
:1028E000B401A70196010E9426334B015C01C70188
:1028F000B601A30192010E94263369017A018D81FC
:102900009E81820D931D9A8389839AE0C916D10412
:10291000E104F10454F606C001112AC0E981FA81EC
:10292000108326C0C501B4012AE030E040E050E049
:102930000E942633605DE981FA81608311822696C8
:102940000FB6F894DEBF0FBECDBFDF91CF911F91C0
:102950000F91FF90EF90DF90CF90BF90AF909F903E
:102960008F907F906F905F904F903F902F90089541
:102970002D813E812F5F3F4F3E832D83B0CFFC01E1
:1029800090E0309749F02081318121713327232B4A
:1029900031F0892F90E0089580E090E008959F5FE6
:1029A0000280F381E02DEDCFCF93DF93EC018FEF29
:1029B000898760E0CE010E94CF278881998182605B
:1029C00099838883CE010E94C127CE01DF91CF91E8
:1029D0000C94EA270F931F93CF93DF93EC01898523
:1029E0009A85891730F0CE010E94D41480E090E0DF
:1029F00014C08F5F898788819981826099838883D9
:102A0000CE010E94C127EC81FD8100E010E020E0B2
:102A100030E045E06985CE010995DF91CF911F91A6
:102A20000F910895CF92DF92EF92FF920F931F9331
:102A3000CF93DF93C62F8091910390919203DC0195
:102A4000ED91FC910280F381E02D611102C041E023
:102A500001C042E060E070E009958111B8C1CC236B
:102A600061F0E0919503F0919603309709F4B8C0B6
:102A70008681883C08F0E9C0B3C0C0919503D0912D
:102A80009603209709F462C08E81883C38F1CE010C
:102A90000E94EA147C01892B09F1EC81FD8100E0A0
:102AA00010E020E030E046E06985CE010995E09134
:102AB000E803F091E903309709F489C1F382E282D7
:102AC000958384830680F781E02DDF91CF911F915C
:102AD0000F91FF90EF90DF90CF90099460E080918C
:102AE0009503909196030E94CF271092960310921F
:102AF0009503C0919303D0919403CE010E94BF141B
:102B000020E0209729F02F5F0A80DB81C02DF9CFCC
:102B100030E021503109E091E803F091E90330976A
:102B200041F033832283958384830680F781E02DEF
:102B30000995E0919103F09192038581813009F02C
:102B400046C19585911143C1858741C10091930389
:102B500010919403E801209739F0888180FD05C029
:102B60000A80DB81C02DF7CFE801C0909103D0909F
:102B70009203FE80B4E6FB120CC0888185FFCCC0B6
:102B80000091990310919A030115110509F062C093
:102B9000C3C0F7E9FF121DC00C171D0709F0BCC028
:102BA000D8011B968C918823D9F0F801F68290E029
:102BB0000197818761E0C8010E94D308C8010E9483
:102BC000FC27D8011696FC9216978FEF19968C93D6
:102BD000FEC0B8E9FB1207C060E0CE010E94D30836
:102BE0000E94AD1A9AC0CE010E941328882359F082
:102BF000CE01DF91CF911F910F91FF90EF90DF9069
:102C0000CF900C94FC272097B1F0888182FD13C0EF
:102C10008FEF8F0D823008F48AC0E3E0FE12ACC063
:102C200061E070E08F819885892B11F060E070E0A1
:102C3000CE010E947A25D6011D968C911D97811197
:102C4000C6C081E01D968C93C2C080919303909181
:102C5000940363C08091970390919803892B61F44A
:102C60008AE290E00E9462357C01B8010E94A925A9
:102C7000F0929803E09297030091970310919803C4
:102C8000F801D28FC18F60E0C8010E960E94D30870
:102C9000D80197961C921E92969760E0C8014B96B9
:102CA0000E94D308F801C285D0E0E384F484AE0129
:102CB0006AE772E0C7010E949E36892B99F0AE0147
:102CC0006AE772E0C7010E94AC36C8010E94E61DA7
:102CD000D8018D919C91119782608D939C93C8012E
:102CE0000E94C12781E0F801858761E0C8010E9448
:102CF000D30860E0C8010E94CF271093940300938B
:102D00009303C601DF91CF911F910F91FF90EF9038
:102D1000DF90CF900C94BC1ACE01DF91CF911F9120
:102D20000F91FF90EF90DF90CF900C94F41AD09316
:102D30009603C093950361E0CE010E94CF278E8158
:102D4000863918F02A8530E005C0EC81FD8178963F
:102D500025913491E091E803F091E903309709F46B
:102D60006ACFA0919503B091960317968D919C918F
:102D700018973383228324C0F7ECFF1508F05BCF4C
:102D8000D0939603C093950361E0CE010E94CF27B4
:102D90001986CE010E94EA147C01EC81FD8100E0DD
:102DA00010E020E030E046E06985CE010995E09131
:102DB000E803F091E903309709F43DCFF382E28212
:102DC000958384830680F781E02D099534CFDF91C8
:102DD000CF911F910F91FF90EF90DF90CF900895CA
:102DE0008F929F92AF92BF92CF92DF92EF92FF921B
:102DF0000F931F93CF93DF93D82EC92E7B01B42E50
:102E0000A52EC82FD92F00E010E0209709F438C074
:102E10004E81463918F08F81988505C0EC81FD817F
:102E2000749685919491F7012681263918F02781AF
:102E3000308506C00480F581E02D7496259134918B
:102E40002817390719F48B2C9A2C01C048014436F5
:102E500051F44D2D5C2DB7018F8198850E94F0169D
:102E60008C01892B09F4840160E0CE010E94D30813
:102E700060E0CE010E94CF270A80DB81C02DC5CF44
:102E8000C801DF91CF911F910F91FF90EF90DF90DC
:102E9000CF90BF90AF909F908F9008952F923F92C8
:102EA0004F925F926F927F928F929F92AF92BF925A
:102EB000CF92DF92EF92FF920F931F93CF93DF9306
:102EC000CDB7DEB765970FB6F894DEBF0FBECDBFA6
:102ED0005C016B012A014901DC015996ED91FC91DD
:102EE0005A9762A4712C13A5D9012D913C91119789
:102EF000C9018D7F8D939C931A01211A310837FEE9
:102F000003C0BFEF2B1A3B0A359427942C0C3D1CB1
:102F1000D50157968D919C91589724FF26C0608DBE
:102F200004960E94842AF5018789908DFC01EA5B52
:102F3000FF4F042D20814C2D60E004960E948E2AC4
:102F4000D5015996ED91FC915A9757968D919C9188
:102F50005897648D04960E94842AD5015996ED9164
:102F6000FC915A97E0A4F1A427C020FF38C0608DDF
:102F700004960E94842AF5018789908DFC01EA5B02
:102F8000FF4F042D20814C2D60E004960E948E2A74
:102F9000D5015996ED91FC915A9757968D919C9138
:102FA0005897648D04960E94842AD5015996ED9114
:102FB000FC915A97E6A0F7A0658962956F705796C5
:102FC0008D919C915897012F930143E0359527955A
:102FD0004A95E1F7422D04960E948D2B1EC0648510
:102FE00004960E94842AF5018789908DFC01EA5B92
:102FF000FF4F042D20814C2D60E004960E948E2A04
:10300000D5015996ED91FC915A9757968D919C91C7
:103010005897608904960E94842A60E070E08BE9EA
:1030200093E00E94110CD5015996ED91FC915A97AD
:103030002589322F32953F70C301830F911D830F75
:10304000911D34893F7046895789452B19F4C30E69
:10305000D11C05C02F70421A5108C40CD51CCD8A52
:10306000F5012789308DF901EF57FF4F80833196A5
:10307000C082D50114964C91149750E012966D9130
:103080007C911397C4010E94452AF50162817381E6
:103090008789908D0E946F2AC4010E94132888237B
:1030A00099F1D50157962D913C9158975996ED91EC
:1030B000FC915A97D901AA5BBF4FCC90D12C94892F
:1030C00092959F70A301490F511DC41AD50A648DB2
:1030D000C90104960E94842AD5015996ED91FC916C
:1030E0005A97E6A0F7A0930103E0359527950A9536
:1030F000E1F757968D919C915897012F422D6C2D99
:1031000004960E948D2B39C1F4018681883959F4C7
:10311000D50114964C91149764EA71E012968D9142
:103120009C91139727C1853609F43EC170F4823013
:1031300009F4D4C018F48130B1F0AEC1833009F481
:10314000EFC0843609F419C1A7C1893938F486392A
:1031500008F01AC1863609F410C19EC1885C84301B
:1031600008F412C199C1F401848195816C01FEE1DA
:10317000CF0ED11CF601259134912230310568F033
:10318000293E43E0340758F42536310558F42B30F6
:10319000310558F4332433940AC0312C08C014E0AC
:1031A000312E05C0B3E03B2E02C0A2E03A2EFC0156
:1031B0007C9625913491D40117968D919C91189706
:1031C000280F391FF60165907490B2E06B167104F8
:1031D0000CF43BC0C901B3010E941233162F472FD4
:1031E000F601859194918230910560F0893EE3E08B
:1031F0009E0758F48536910558F40B9760F4EAE081
:10320000F0E00BC0E1E0F0E008C0E0E1F7E205C06B
:10321000E8EEF3E002C0E4E6F0E0C901B3010E9489
:1032200012339C0197FF03C0319521953109CF01DD
:10323000B3010E941233269F2001279F500C369F16
:10324000500C1124212F342F02C0412C512C1982F3
:10325000A901330F660B770BFCE0CF2ED12CE12CAC
:1032600000EA16E821E030E0CE0101963C010E9420
:10327000FB133320C1F041E050E06EE2C3010E9435
:10328000F51294E0399EF0011124E457FE4F0081BD
:10329000118122813381A20160E070E0E0E3EE2E33
:1032A000C3010E94FB13F30101900020E9F731975D
:1032B000CF01861997098C3078F44CE0481BD40173
:1032C00014966D917C911597605E7F4FF301E80F26
:1032D000F11DCF010E94D612B301D8C0F501628062
:1032E0007380D4011496ED91FC9115977C9685918D
:1032F00094911796ED91FC911897EE0FFF1FE80F30
:10330000F91F65917491F5018481C82ED12CA60115
:10331000C3010E94C232C60CD71CF601319732C0DD
:10332000D4010480F581E02D7C96E49117968D916F
:103330009C911897E13019F0E23031F00AC0892BE6
:1033400069F460EA71E012C0892B59F46CE971E00C
:103350000DC0892B49F466E971E008C069E871E0A5
:1033600005C06CE871E002C060E971E0F5014481DC
:10337000828193810E94D61296C0D5011296ED915A
:10338000FC91139710828FC0F501048110E0228117
:103390003381D4011496ED91FC91159740E0199674
:1033A0006C91C40109957FC01982F4016781708511
:1033B000818592850E9408342AE0AE014F5F5F4FFD
:1033C0000E94D13244E150E06EE2CE0101960E94AB
:1033D000F512D4011496ED91FC911597789685918C
:1033E000949101978830910560F4880F991F880F98
:1033F000991FFC01E057FE4F40805180628073802E
:1034000007C0412C4AEC542E4AE9642E4BE3742E3B
:10341000F401C780D084E184F284C701B6010E9420
:1034200008340E9440349B01AC01C701B6010E94E0
:103430009B336B017C01C301B2010E9440349B01AC
:10344000AC01C701B6010E94D1346B017C0120E0C0
:1034500030E0A9010E94CC3418161CF4C701B60153
:1034600003C0C701B60190580E94083424E1C22E5F
:10347000D12C30E3E32E93018201AB01BC01CE01DC
:1034800001960E94FB13BE016F5F7F4FD50112961C
:103490008D919C91139705C067E772E0F5018281D9
:1034A00093810E949736D50157968D919C9158979C
:1034B000FC01EA5BFF4FC080D12C12966D917C918C
:1034C000139721E53BE0FC013783268304960E9495
:1034D0008A2CD50157962D913C915897B9016F5779
:1034E0007F4F59960D90BC91A02D54964C914295CA
:1034F0004F7090E0840F911DC81AD90AFB01C08259
:1035000031962D892083D50112966D917C91139768
:1035100057968D919C9158970E946F2A60E070E0B9
:103520008BE993E00E94110C65960FB6F894DEBF0C
:103530000FBECDBFDF91CF911F910F91FF90EF9004
:10354000DF90CF90BF90AF909F908F907F906F90C3
:103550005F904F903F902F900895609193037091EA
:10356000940380918F03909190036115710509F484
:10357000BC01AC010C94F016CF93DF93EC010E94D8
:10358000AD1AE0919303F09194038681873911F08D
:1035900080E009C01386808191818260918380835D
:1035A000828590E009C0309729F08F5F0280F38117
:1035B000E02DF9CF90E00197E091E803F091E90365
:1035C000309751F093838283158214820680F781AD
:1035D000E02D80E090E009958D85823010F482E046
:1035E0008D87DF91CF9108950F931F93CF93DF9332
:1035F000EC010091910310919203F80185818130D3
:1036000059F58091950390919603009751F060E0F1
:103610000E94CF2761E080919503909196030E94CC
:10362000D30810929603109295030E94AD1A8E81D2
:10363000843619F40F80D885C02DD0939403C0939D
:10364000930361E0CE010E94D308C801DF91CF91BE
:103650001F910F910C94BC1ADF91CF911F910F9184
:10366000089580912E038111FCCF413208F040E291
:1036700081E080932E0380932D039FEF90932C0382
:1036800010922B03940F90932A0380932903809127
:103690002903660F682B60932903809128038130EA
:1036A00061F410922803809129038093BB008091DC
:1036B000BC0083FDF8CF85EC01C085EE8093BC0093
:1036C00080912E038130E1F380912B03841710F455
:1036D00040912B03E8E0F3E0A1E3B3E080E084173E
:1036E00021F091919D938F5FFACF109230038093D8
:1036F0002F0308959B01DC011896ED91FC91199719
:1037000041E067E109940F931F93CF93DF93EC019E
:103710008A018C8191E090930703809306031092B5
:103720000503109204038A819B81DC01ED91FC91D9
:103730000190F081E02D09958A819B81DC01ED915A
:10374000FC910190F081E02D602F09958A819B8189
:10375000DC01ED91FC910190F081E02D612F099544
:1037600061E08A819B810E94690891E0811190E06B
:10377000892FDF91CF911F910F9108951F93CF93C0
:10378000DF93EC01142F8C8191E0909307038093D9
:10379000060310920503109204038A819B81DC01C9
:1037A000ED91FC910190F081E02D09958A819B813A
:1037B000DC01ED91FC910190F081E02D612F0995E4
:1037C00061E08A819B810E94690891E0811190E00B
:1037D000892FDF91CF911F9108951F93CF93DF938E
:1037E000EC018C8191E09093070380930603109283
:1037F0000503109204038A819B81DC01ED91FC9109
:103800000190F081E02D099560E08A819B810E9402
:10381000690842E06C818A819B810E94311B8A8108
:103820009B81DC01ED91FC910284F385E02D0995EB
:10383000182F8A819B81DC01ED91FC910284F38534
:10384000E02D099520E030E0382FC901812BDF9170
:10385000CF911F9108950895CF92DF92EF92FF923A
:103860000F931F93CF93DF936C017A018B01C0E01C
:10387000D0E0CE15DF0581F0D8016D918D01D60124
:10388000ED91FC910190F081E02DC6010995892B05
:1038900011F02196EECF7E01C701DF91CF911F91EC
:1038A0000F91FF90EF90DF90CF9008950E948336A4
:1038B0003FB7F8948091850390918603A091870388
:1038C000B091880326B5A89B05C02F3F19F001963B
:1038D000A11DB11D3FBFBA2FA92F982F8827820F96
:1038E000911DA11DB11DBC01CD0142E0660F771FE6
:1038F000881F991F4A95D1F708952FB7F8946091C2
:1039000081037091820380918303909184032FBF80
:1039100008951F920F920FB60F9211242F933F9389
:103920008F939F93AF93BF93809181039091820374
:10393000A0918303B09184033091800323E0230F8F
:103940002D3720F40196A11DB11D05C026E8230FD7
:103950000296A11DB11D2093800380938103909353
:103960008203A0938303B093840380918503909195
:103970008603A0918703B09188030196A11DB11D14
:103980008093850390938603A0938703B093880365
:10399000BF91AF919F918F913F912F910F900FBE4B
:1039A0000F901F9018951F920F920FB60F9211242F
:1039B0002F933F934F935F936F937F938F939F9337
:1039C000AF93BF93EF93FF93E0910801F09109014A
:1039D0000995FF91EF91BF91AF919F918F917F9149
:1039E0006F915F914F913F912F910F900FBE0F906C
:1039F0001F9018951F920F920FB60F9211242F93BC
:103A00003F934F935F936F937F938F939F93AF9366
:103A1000BF93EF93FF93E0910601F09107010995A1
:103A2000FF91EF91BF91AF919F918F917F916F9196
:103A30005F914F913F912F910F900FBE0F901F906C
:103A400018951F920F920FB60F9211242F933F9348
:103A50004F935F936F937F938F939F93AF93BF9396
:103A6000EF93FF93E0910401F09105010995FF9117
:103A7000EF91BF91AF919F918F917F916F915F91E6
:103A80004F913F912F910F900FBE0F901F9018955F
:103A90001F920F920FB60F9211242F933F934F93C3
:103AA0005F936F937F938F939F93AF93BF93EF93A6
:103AB000FF93E0910201F09103010995FF91EF91CD
:103AC000BF91AF919F918F917F916F915F914F9136
:103AD0003F912F910F900FBE0F901F9018951F923E
:103AE0000F920FB60F9211242F933F934F935F9332
:103AF0006F937F938F939F93AF93BF93EF93FF93B6
:103B0000E0910001F09101010995FF91EF91BF91C2
:103B1000AF919F918F917F916F915F914F913F9165
:103B20002F910F900FBE0F901F901895853008F0C1
:103B30004CC0E82FF0E0EE0FFF1FE050FF4F718305
:103B400060838230E1F018F4813069F004C0833082
:103B500019F1843071F1809169008C7F482B40937A
:103B60006900E89A089580916900837F440F551F8A
:103B7000440F551F482B40936900E99A089580919E
:103B800069008F7C34E0440F551F3A95E1F7482BCC
:103B900040936900EA9A0895809169008F7326E046
:103BA000440F551F2A95E1F7482B40936900EB9A83
:103BB000089580916A008F7C94E0440F551F9A9578
:103BC000E1F7482B40936A00EE9A0895DC011A96BB
:103BD0004C911A97842F90E01B96ED91FC911C97C5
:103BE000E80FF91F3197108220E030E0241770F4BD
:103BF000B9016F5F7F4F1B96ED91FC911C97E20F0F
:103C0000F31F5081552311F09B01F0CF3327281764
:103C1000390754F41B96ED91FC911C97E20FF31FAA
:103C200010822F5F3F4FF3CF0895FC018485958567
:103C300097FD0BC09FB7F89482E08093E9008091D4
:103C4000F2009FBF90E0019608959FB7F89482E03C
:103C50008093E9008091F2009FBF90E00895409129
:103C60008C0350918D0320918A0330918B0342176E
:103C70005307B4F49091E8009570E1F39091E80057
:103C800092FD19C08093F10080918C0390918D0377
:103C900001968F739927892B19F48EEF8093E80092
:103CA00080918C0390918D03019690938D03809366
:103CB0008C0381E0089580E00895DF92EF92FF92F7
:103CC0000F931F93CF93DF93D82E8A017B01E40ECD
:103CD000F51EEB01CE15DF0571F0D7FE03C0FE0126
:103CE000849101C088810E942F1E21968111F2CFFC
:103CF0008FEF9FEF01C0C801DF91CF911F910F910E
:103D0000FF90EF90DF900895615030F02091F10026
:103D1000FC0120830196F8CF289884E6809345091A
:103D2000089590E0FC013197EF30F105B0F5EA5AC3
:103D3000FF4F0C944533809180008F7703C08091B2
:103D400080008F7D80938000089580918000877F20
:103D5000F9CF84B58F7702C084B58F7D84BD089577
:103D6000809190008F7707C0809190008F7D03C075
:103D700080919000877F8093900008958091C0008B
:103D80008F7703C08091C0008F7D8093C00008951D
:103D90008091C200877F8093C20008950E943B26D5
:103DA00090E008950F931F93CF93DF931F92CDB7A9
:103DB000DEB78C01FC018485958597FF0EC0CE018E
:103DC00001960E940D26019719F4898190E002C0A6
:103DD0008FEF9FEFF80195878487F801848595859B
:103DE0000F90DF91CF911F910F910895CF93DF93A3
:103DF0001F92CDB7DEB7FC018485958597FD05C080
:103E00002FEF3FEF358724870BC0CE0101960E942C
:103E10000D26019719F4898190E002C08FEF9FEF82
:103E20000F90DF91CF9108950F931F93CF93DF935E
:103E30001F92CDB7DEB782E0898342E450E06EE2A4
:103E400073E080E80E945D1E0E94D226DC0112967B
:103E50000D911C9113970115110589F0D801ED9171
:103E6000FC910280F381E02DBE016F5F7F4FC8019E
:103E7000099597FD04C0F80100851185ECCF898173
:103E80000F90DF91CF911F910F9108951F920F9284
:103E90000FB60F9211248F939F938091E100909120
:103EA000E100937F9093E10083FF0FC01092E9003F
:103EB00091E09093EB001092EC0092E39093ED0070
:103EC0001092460998E09093F00082FF20C093E0A2
:103ED0009093E9009091F200992319F09AE390935E
:103EE000E80090914309992339F09091430991504A
:103EF00090934309992389F190914509992339F0C9
:103F000090914509915090934509992341F184FF7F
:103F100010C08091E2008E7E81608093E2008091EB
:103F2000E1008F7E8093E100809144098E7E806164
:103F300011C080FF16C08091E2008E7E8061809368
:103F4000E2008091E1008E7E8093E100809144093F
:103F50008E7E81608093440904C05D9ACDCF289AFB
:103F6000D6CF9F918F910F900FBE0F901F901895F5
:103F70001F920F920FB60F921124CF92DF92EF9201
:103F8000FF920F931F932F933F934F935F936F93E2
:103F90007F938F939F93AF93BF93EF93FF93CF93B1
:103FA000DF93CDB7DEB76C97DEBFCDBF1092E900CF
:103FB0008091E80083FFFBC168E0CE0145960E9436
:103FC000841E82EF8093E8008D8987FF05C0909161
:103FD000E80090FFFCCF03C09EEF9093E800982F7D
:103FE000907609F0C6C09E894F89588D2F89F88C2C
:103FF00091110CC0803829F4809189038093F100DD
:1040000002C01092F1001092F10045C1913051F4BC
:10401000811141C14130510509F03DC180918903B1
:104020008D7F0BC0933061F4811135C14130510552
:1040300009F031C1809189038260809389032BC18B
:10404000953049F48091E80080FFFCCF822F806892
:104050008093E30020C1963009F05EC00B8D1C8D6B
:1040600022E01092E90010928D0310928C03F2125C
:1040700032C010928B0310928A030E94141F99E0A1
:10408000BE016F5F7F4FDB01E92F1D92EA95E9F7D3
:104090009983FA8291E09E8390EA98879AEF9987B4
:1040A00020918C0330918D03275F3F4F3C832B83FE
:1040B0008D831092E90010928D0310928C0310935F
:1040C0008B0300938A0349E050E080E00E945D1E6C
:1040D0000E94141FE0C010938B0300938A030E9478
:1040E000D226DC0112960D911C9113970115110532
:1040F00009F4BBC0D801ED91FC910480F581E02D5D
:10410000BE016B5E7F4FC8010995009709F0C7C0DB
:10411000F80100851185EACF973009F445C1983040
:1041200021F481E08093F100B6C0993009F0B3C06A
:10413000837009F039C1E5ECF1E081E031E096E30C
:104140002081211109C08EE78093EA001092EA00D5
:104150008F89809346099FC08093E9003093EB00DC
:1041600021912093EC009093ED008F5F873041F711
:10417000EACF8B8D9C8D1092E90010928D031092E6
:104180008C0390938B0380938A03898D811153C094
:104190008E899D89913A49F4813209F005C147E041
:1041A00050E06EE071E080E0BBC0913209F0FCC0ED
:1041B000833269F48F89988DA0E0B0E080930A0182
:1041C00090930B01A0930C01B0930D0164C0803259
:1041D00069F48091E80082FFFCCF67E08EE091E017
:1041E0000E94841E8BEF8093E80055C0823209F054
:1041F00052C08F8980931501EEEFFFE7859194916E
:104200008B3F9C4D19F0E0E0F8E002C0EEEFFAE0E1
:1042100080910E0190910F01A0911001B0911101B8
:10422000803B9440A105B10509F09EC08091150125
:1042300080FF79C099C00E94D226FC0102811381BF
:104240000115110509F4B0C0D801ED91FC91019060
:10425000F081E02DBE016B5E7F4FC8010995811191
:104260001AC0F80100851185EBCFF1E0FF1609F4C3
:104270004EC0F3E0FF1298C08F89882309F44AC02A
:10428000823089F440E862E18FE893E00E940F30C9
:10429000882309F489C08EEF8093E80088C018163F
:1042A0001906CCF381C0813029F440E868E086E843
:1042B00093E0ECCF833009F077C00E94D226DC0176
:1042C0001296ED90FC9013978E010F5F1F4F6801BF
:1042D000E114F10479F0D701ED91FC910680F781AA
:1042E000E02DB801C7010995080F111DF701E08401
:1042F000F184EECFD8011C92F60101900020E9F77D
:104300003197BF016C197D0940E0C601BFCF64E75A
:1043100073E002C060E773E0FB01449150E080E885
:104320000E945D1EB8CFEE3F2AE0F20751F0808177
:1043300091818737A7E79A0721F09093FF0A80932E
:10434000FE0A87E797E791838083809160008093DE
:104350008E039BE088E10FB6F894A89580936000E7
:104360000FBE9093600097CF8081918187379747E8
:1043700009F091CFA89580916000886180936000DA
:1043800080918E0380936000EE3FBAE0FB0739F026
:104390008091FE0A9091FF0A918380837CCF1092D6
:1043A000FF0A1092FE0A77CF81E28093EB006C96B1
:1043B0000FB6F894DEBF0FBECDBFDF91CF91FF9156
:1043C000EF91BF91AF919F918F917F916F915F918D
:1043D0004F913F912F911F910F91FF90EF90DF90A0
:1043E000CF900F900FBE0F901F901895CF93DF9333
:1043F000282F30E0F901E05FFC4F8491F901EF5084
:10440000FD4FD491F901EE52FD4FC491CC2391F0B0
:1044100081110E94911EEC2FF0E0EE0FFF1FEC5374
:10442000FD4FA591B491EC91ED2381E090E021F452
:1044300080E002C080E090E0DF91CF9108951F936B
:10444000CF93DF93282F30E0F901E05FFC4F849198
:10445000F901EF50FD4FD491F901EE52FD4FC49197
:10446000CC23C1F0162F81110E94911EEC2FF0E099
:10447000EE0FFF1FEA54FD4FA591B4919FB7F8943A
:10448000111104C08C91D095D82302C0EC91DE2B81
:10449000DC939FBFDF91CF911F910895CF93DF935E
:1044A00090E0FC01EF50FD4F2491FC01EE52FD4FD6
:1044B0008491882361F190E0880F991FFC01E855F1
:1044C000FD4FC591D491FC01EA54FD4FA591B491E3
:1044D000611109C09FB7F894888120958223888351
:1044E000EC912E230BC0623061F49FB7F894888161
:1044F000322F309583238883EC912E2B2C939FBFF2
:1045000006C08FB7F894E8812E2B28838FBFDF91E8
:10451000CF9108958F929F92AF92BF92CF92DF92E8
:10452000EF92FF926B017C010E94581C4B015C01D1
:10453000C114D104E104F104F1F00E94581CDC0123
:10454000CB0188199909AA09BB09883E9340A105A6
:10455000B10570F321E0C21AD108E108F10888EE34
:10456000880E83E0981EA11CB11CC114D104E10483
:10457000F10419F7DDCFFF90EF90DF90CF90BF905F
:10458000AF909F908F900895DC0118964C911897EA
:10459000ED91FC911197249130E0042E02C03595E5
:1045A00027950A94E2F7842F860F883010F4E22FC3
:1045B0000DC031961196FC93EE93E49198E0941B14
:1045C00001C0EE0F9A95EAF7E22B885018968C936B
:1045D00081E090E001C0880F6A95EAF781508E2350
:1045E00008950F93DC01862FFD01ED58FF4F908158
:1045F000992371F1222361F1BD979081491740F110
:1046000031969081491720F532979081319730810A
:10461000260F261730F4691718F42FEF290F03C05F
:10462000832F8917A8F4321798F4632F381708F4EA
:10463000682F291708F4922F292F261BD796ED9162
:10464000FC91D8970480F581E02D00E0CD0109951B
:104650000F910895CF93C62F0E94C422C15021E02C
:1046600030E001C0220FCA95EAF7821BCF9108956E
:104670000F931F93CF93DF938C01EC01C05BDF4F4F
:10468000798368831886FC01E05AFF4F6081CE0170
:104690000E94C4228E83F801EF59FF4F6081CE0142
:1046A0000E94C4228F83F801E758FF4F90819A87B8
:1046B00081E0911180E08B87DF91CF911F910F9165
:1046C0000895EF92FF920F931F93CF93DF93FC0116
:1046D000E45BFF4F20813181295E3F4F6F3F7105C1
:1046E00009F018F56136710510F0B39606C0613413
:1046F000710538F0FC01E359FF4F80819181280F4B
:10470000391FC9010196FC014491442309F43CC0BE
:10471000F901449150E06417750711F4019636C011
:10472000FC018491280F311DECCF8B01FC01EF5867
:10473000FF4FE080F180E20EF31EE70160E0C70169
:104740000E94B405C80FD91F62E0C7010E94B405DA
:10475000F4E0EF0EF11C8017910780F3FE018491C5
:1047600090E0982F88273196E4918E2B009761F086
:104770000817190719F4CE01039608C0FE013296F6
:10478000E491CE0FD11DEACF80E090E0DF91CF9190
:104790001F910F91FF90EF900895CF93DF93C2E5A3
:1047A000D4E080939204EBADFCAD0190F081E02D5C
:1047B00086E594E00995EBADFCAD0280F381E02D38
:1047C00086E594E0DF91CF910994E2E5F4E0A481DD
:1047D000B58150968C9147AD849FA001112483E050
:1047E000440F551F8A95E1F760E070E085AD96AD06
:1047F0000C949036DC01ED91FC910084F185E02D64
:104800000994DC01ED91FC910484F585E02D099477
:10481000DC01ED91FC910480F581E02D099460911B
:10482000E303EBE9F3E020E030E0261748F4C901A8
:10483000428153812F5F3F4F3B9657FDF6CF08953E
:104840008FEF90E00895CF93DF931F92CDB7DEB73F
:104850006983DC01ED91FC910280F381E02D41E060
:1048600050E0BE016F5F7F4F09950F90DF91CF91B0
:10487000089583E08093E9008091F200882319F085
:104880008AE38093E8000895CF93DF93EC016AE018
:104890000E94ED1B2E819D812F3F21F49F3F29F027
:1048A000806403C09F3F09F08F7B8F7590E0582F85
:1048B0004427482B592B6AE0CE010E94831B18869F
:1048C0001986DF91CF910895FF920F931F93CF9395
:1048D000DF93EC01162F042FF22E0E94ED1B41E016
:1048E00050E060E070E004C0440F551F661F771F62
:1048F0000A95D2F7FF2019F0482B592B04C0409598
:10490000509548235923612FCE01DF91CF911F91FC
:104910000F91FF900C94831BCF93DF93EC018C815C
:1049200091E0909307038093060310920503109281
:1049300004038A819B81DC01ED91FC910190F0815F
:10494000E02D099560E08A819B810E94690841E021
:104950006C818A819B810E94311B8A819B81DC0151
:10496000ED91FC910284F385E02D0995DF91CF91C3
:104970000895CF92DF92EF92FF920F931F93CF9300
:10498000DF938091F0039091F1030E940124C2EF24
:10499000D3E000E010E0F12CF3E0EF2EA4E0DA2EFB
:1049A0008091240490E0081719070CF099C06A81DF
:1049B0008091F0039091F1030E94FA23C82E888120
:1049C000982F90742091250420FF03C0911107C0F7
:1049D00002C0992321F091E0C11090E0C92E2E81F0
:1049E0003F812115310521F448855985452B11F169
:1049F000982F9F7041E0C41209C019F4807F816034
:104A000009C04FEF490F423010F53BC0807F913015
:104A100019F4826088830EC088838981833019F4F9
:104A2000198260E004C0843029F4198261E0CE016B
:104A30000E945B0F88818F709FEF980F923008F073
:104A400048C091E0F92A0F5F1F4F2A96A9CF9330F3
:104A500081F49B819F5F9B839531D0F1807F84603F
:104A60008883D98261E0CE010E947F0F1B82CC82B5
:104A7000E1CF943069F55D815F3F51F1232B61F403
:104A800027C0807F83608883E9821B82CC8260E0BC
:104A9000CE010E947F0FCECF9C81692F70E02B81C9
:104AA00041E0420F9B013595279535952795240FB9
:104AB0002B83521768F46F3F710511F09F5F01C09F
:104AC0009FEF9C8361E0CE010E947F0F1B82B2CFDB
:104AD0008F70835091E0823008F4B4CF90E0B2CF71
:104AE0008F2DDF91CF911F910F91FF90EF90DF906D
:104AF000CF9008950F931F93CF93DF93EC018F8195
:104B000098858617970701F18E81863918F08A8576
:104B100090E005C0EC81FD8178968591949186178F
:104B2000970790F08B0188819981826099838883AF
:104B3000CE010E94C12718870F83CE01DF91CF914C
:104B40001F910F910C94FC27DF91CF911F910F9132
:104B50000895BF92CF92DF92EF92FF920F931F932F
:104B6000CF93DF93EC016B010091160110911701B7
:104B700088EC8E83CE010E969B838A8382E0E82E9A
:104B8000F12CF982E88218870F8390E1B92EBA865A
:104B90008BE093E19D838C83198680E190E00E94F5
:104BA00062359C878B87FC011192BA94E9F71D86C8
:104BB00099E99C8B9E01255E3F4F398B288BFF86A0
:104BC000EE8698012F5F3F4F3E8B2D8B81E0888FC3
:104BD0002AE431E13B8B2A8B8F8BA8014D5F5F4F1D
:104BE000509317014093160199A31E8E1D8EFC8EC3
:104BF000EB8E0E5F1F4F1BA30AA38DA338A32F8F2D
:104C00001CA2D9A6C8A6DF91CF911F910F91FF904A
:104C1000EF90DF90CF90BF90089520914609211129
:104C200003C08FEF9FEF08955FB7F89422E02093C1
:104C3000E9002091F20030E01216130614F421E08E
:104C400030E0422FFC0184E6415038F028988093F0
:104C500045099091F1009193F7CF2115310521F08D
:104C60008091F200882319F05FBFC90108958BE697
:104C70008093E800F9CF2FB7F89483E08093E900A0
:104C80009091E800892F807295FF04C09091F20006
:104C900080E4891B2FBF08958F929F92AF92BF929D
:104CA000CF92DF92EF92FF920F931F93CF93DF93F8
:104CB0006C017B018A0180911501882309F45CC095
:104CC00080914609882309F457C08091440980FFE8
:104CD00005C08091E00082608093E000E801B12C83
:104CE0008AEFA82E93E0892E2AE3922E209711F4C2
:104CF000BB20D9F10E943B2681110AC0AA94AA20A8
:104D0000D9F161E070E080E090E00E948A22EECF6D
:104D1000282F30E0C217D3070CF48C2F9FB7F894DC
:104D20008092E9002091E80025FF1DC0282F30E087
:104D3000C21BD30BF701815020F041914093F10049
:104D4000FACFE20EF31EBB2019F09092E8000AC0E1
:104D50008091E80085FD07C09092E800BB24B394E1
:104D6000209709F0B12C9FBFC1CF5D9884E6809356
:104D700043091016110644F081E090E0F601938398
:104D8000828380E090E001C0C801DF91CF911F9144
:104D90000F91FF90EF90DF90CF90BF90AF909F90DA
:104DA0008F90089580914B0981110DC082E080930E
:104DB000470984E08093480910924A0910924909F2
:104DC00081E080934B0987E499E008951F93CF9386
:104DD000DF93EC01142F8B859C859A878987E88166
:104DE000F9810480F581E02DCE0109952D893E8958
:104DF000232B41F4009721F0FC01838581FD02C043
:104E000080E002C01C8B81E0DF91CF911F9108955B
:104E1000E62FF0E0EE52FD4FE491F0E0EE0FFF1FC1
:104E2000EC53FD4FA591B4918C910895E62FF0E0DD
:104E3000EE52FD4FE491F0E0EE0FFF1FEA54FD4FFC
:104E4000A591B4914C9308958FEF8093E60381E090
:104E50008093E703089582E18093E60381E08093E5
:104E6000E70308958FE08093E60381E08093E703F2
:104E700008958EE08093E60381E08093E703089530
:104E80008DE08093E60381E08093E70308958CE052
:104E90008093E60381E08093E70308958BE080939D
:104EA000E60381E08093E70308958AE08093E603B8
:104EB00081E08093E703089589E08093E60381E031
:104EC0008093E703089588E08093E60381E0809370
:104ED000E703089587E08093E60381E08093E7038A
:104EE000089586E08093E60381E08093E7030895C8
:104EF00085E08093E60381E08093E703089584E0F2
:104F00008093E60381E08093E703089583E0809334
:104F1000E60381E08093E703089582E08093E6034F
:104F200081E08093E703089581E08093E603809316
:104F3000E7030895862FBA01882351F0813051F09C
:104F4000823051F0833051F0873051F08FEF09C03B
:104F500082E007C083E005C081E003C080E001C0BB
:104F600084E0422F50E00C94961D862F0E94F6217B
:104F70000895862F642F0C941F22862F642F0C9483
:104F80004E22FC018081918183FF03C09370918345
:104F90008083808191819C6F918380830895FC013F
:104FA000808191819C01662311F0206101C02F7ED8
:104FB00031832083208131812260318320832681C7
:104FC000283C38F0611105C084FF03C0CF010C9468
:104FD000D41408950F931F93DC011496ED91FC9166
:104FE000159700E010E020E030E043E019966C9166
:104FF00009951F910F910895FC012681263910F023
:105000000C94EA27FC0184819581FC017A96259114
:1050100034912115310531F0FC01749685919491FC
:10502000F90109940895FC019681892F8D7F8436BA
:1050300021F0993911F0963911F481E008959739EA
:1050400021F481E091859F3F09F080E00895CF939E
:10505000DF93EC0180918F03909190030E94F41AEA
:105060008FEF9FEF9A878987E889F989309719F040
:10507000DF91CF910994DF91CF910895F8948091B9
:10508000530990915409892B69F482E090E00E94C1
:1050900062352DE432E0FC01318320839093540982
:1050A00080935309789480915309909154090895FD
:1050B0008F929F92AF92BF92EF92FF920F931F93A6
:1050C000CF93DF938C010C5B1F4FF801808191819E
:1050D000009731F471836083FB011186108638C01C
:1050E000EB010E94F50E4B015C01CE010E94F50E12
:1050F000F80130812181681579058A059B0528F41E
:1051000038872987D183C08323C0032F122FF8014A
:10511000E084F184E114F104B1F0C7010E94F50EBE
:105120004B015C01CE010E94F50E681579058A05D8
:105130009B0530F4F801D187C087F986E88608C05E
:105140008701F701E5CFF801D187C0871986188656
:10515000DF91CF911F910F91FF90EF90BF90AF9093
:105160009F908F900895EF92FF920F931F93CF938C
:10517000DF938C018FEF9FEFF80192878187168A6A
:10518000158A82E08587C8010E9427280E940F2483
:105190008F3F49F1FBE08F9FE0011124CE0185563E
:1051A0009C4F7C018AEF90EEF701938382830A5F24
:1051B0001F4F1187008781E084870E947D1CF701C3
:1051C000648375838683978313861286BE01635634
:1051D0007C4F8BE993E0DF91CF911F910F91FF906E
:1051E000EF900C945828DF91CF911F910F91FF9071
:1051F000EF9008954F925F926F927F928F929F925D
:10520000AF92BF92DF92EF92FF920F931F93CF93D3
:10521000DF938C01D62EFC01E45BFF4F8081882355
:1052200041F010823197808132970190F081E02D1A
:105230000995780144E4E40EF11CD701CD91DC918D
:10524000209749F18881998197FF25C093FD23C05C
:105250009C01222730735C01F7E0BF222115310544
:1052600009F4AEC02115304151F50E947D1C2B017F
:105270003C019501A8EEB3E00E944B338A809B80ED
:10528000AC80BD80481859086A087B084616570646
:105290006806790640F5DD2009F4A8C0F801EA5B4C
:1052A000FF4FC081D181209709F4A0C0EA81FB8122
:1052B0008881998109950C80DD81C02DF4CF0E94F1
:1052C0007D1C4A805B806C807D80DC01CB01841971
:1052D0009509A609B7092501612C712C841595053E
:1052E000A605B705C0F2F701A081B181CA17DB0797
:1052F00029F488859985918380830FC01896ED9154
:10530000FC911997309789F0CE17DF0749F488850B
:10531000998519969C938E9318971986188605C0BF
:10532000DF010084F185E02DEDCF8E819F81009714
:10533000D9F1288139814A8536FF24C03860398304
:105340002883442341F0DC01ED91FC910190F08130
:10535000E02D099502C0FC01099588819981882773
:105360009073892B19F40E94581C02C00E947D1C66
:105370006A837B838C839D8388819981977F9983BE
:10538000888312C0198218821F821E82198618868D
:10539000442341F0DC01ED91FC910190F081E02D7E
:1053A000099502C0FC0109958881998196FF04C086
:1053B000BE01C8010E9458280884D985C02D40CF5D
:1053C0000E94581C4A805B806C807D80AB01BC01D0
:1053D0004419550966097709C501A0E0B0E04817EE
:1053E00059076A077B0708F07ECF55CFDF91CF9131
:1053F0001F910F91FF90EF90DF90BF90AF909F9023
:105400008F907F906F905F904F9008950F931F93B0
:10541000CF93DF939093F1038093F00310922504D0
:1054200010922404809125048160809325040E94B9
:105430000F248F3F29F19BE0899FE00111248E0109
:1054400005561C4F84E190EEF8019383828382EE2F
:105450009CE09187808714860E947D1CF8016483FC
:1054600075838683978313861286BE0163567C4FAD
:105470008BE993E0DF91CF911F910F910C94582805
:10548000DF91CF911F910F9108950F931F93CF93A9
:10549000DF93FC01CB012681263940F464817581BC
:1054A000DF91CF911F910F910C94D6128A01EB01DD
:1054B000CF010480F581E02D9B0141E0DC011996CC
:1054C0006C910995FE0101900020E9F73197CF0119
:1054D0008C1B9D0BDF91CF911F910F91089561154A
:1054E000710579F0FB0101900020E9F73197AF01D8
:1054F000461B570BDC01ED91FC910280F381E02DFE
:10550000099480E090E00895FC01E758FF4F633074
:1055100010F46083089581E080830895DF92EF9214
:10552000FF920F931F93CF93DF937C01162FC42F0D
:10553000D22ED42FD00F262F2D0D0D2F0E94B91053
:10554000882351F0DC1741F02D2D4C2F612FC7011E
:105550000E94F122CF5FF6CFDF91CF911F910F9183
:10556000FF90EF90DF900895CF92DF92EF92FF923D
:105570000F931F93CF93DF936C012CE4C20ED11CC9
:10558000D6012D913C9111972617370709F4BCC01D
:10559000EB017C016D937C93FB0184918701045A9C
:1055A0001F4FD8018C933196E4911196EC9311978B
:1055B000FB013296E4911296EC931297FB0133961D
:1055C000E4911396EC931397FB013496E4911496AF
:1055D000EC931497FB013596E4911596EC9315978F
:1055E000FB013696E4911696EC931697FB013796DD
:1055F000E4911796EC931797FB013896E49118966F
:10560000EC931897FB013996E4911996EC9319974E
:10561000FB013A96E4911A96EC931A97FB013B969C
:10562000E4911B96EC931B97FB013C96E4911C962E
:10563000EC931C97FB013D96E4911D96EC931D970E
:10564000FB013E96E4911E96EC931E97FB013F965C
:10565000E4911F96EC931F97FB017096E49150968E
:10566000EC9361E1CE010E94B405F801928B818B2D
:1056700063E1CE010E94B405D80154969C938E93A9
:10568000539765E1CE010E94B405F801968B858B96
:10569000D6018D919C911197892BB1F13D96808116
:1056A000E701CB58DF4F8883319640819A964C931F
:1056B0003A969081992341F1913069F4399790811C
:1056C00089170CF49883F701E459FF4F8081841700
:1056D000DCF48C9319C0F701EA59FF4F3081329600
:1056E0002081082E000C990B622F022E000C770BE4
:1056F000630F711D37FD7A958617970714F4320FE3
:10570000388324170CF42C93DF91CF911F910F91C4
:10571000FF90EF90DF90CF9008952F923F924F929D
:105720005F926F927F928F929F92AF92BF92CF9231
:10573000DF92EF92FF920F931F93CF93DF9300D0EE
:1057400000D0CDB7DEB79C838B83562E742EA22E4D
:10575000040F0983362E88E0289F300C1124232D56
:105760008B819C810E94B910882309F446C0CB80AC
:10577000DC80F9E7CF0ED11C8B809C8088E7880EF7
:10578000911CB12CE981E715C1F1E1E0E70DEA8355
:105790000E2F232D472D652D8B819C810E94B910E2
:1057A000882339F1F60120808701652C80E8482E96
:1057B0003614E9F0F8018081842119F0F601208285
:1057C00009C0F401808181110CC081E0211080E0CA
:1057D000F601808321E0472D662D8B819C810E94FC
:1057E000F1226394469421F70F5F1F4FDFCFF6013C
:1057F0002082EA0CFB1C7A80C5CF0F900F900F908F
:105800000F90DF91CF911F910F91FF90EF90DF905C
:10581000CF90BF90AF909F908F907F906F905F9050
:105820004F903F902F900895AF92BF92CF92DF920A
:10583000EF92FF920F931F93CF93DF935C01162F8C
:10584000DC011E96CD91DC911F975796ED91FC914E
:105850005897EA5BFF4FC080D12C5996ED91FC918F
:105860005A9784A182958F70C81AD108862F2097E5
:1058700009F445C09C81C91AD1089B81911110C0BF
:1058800011110EC00F80D885C02DD5015996ED910C
:10589000FC915A9795A192959F70C91AD108E7CFAC
:1058A000D5015996ED91FC915A9757968D919C91FF
:1058B000589760A104960E94842A1B828A812881BD
:1058C0009981E22FF92FE80FF11DE80FF11DE59006
:1058D000F4902C81269526952695D5015996ED9123
:1058E000FC915A9744A14F7057968D919C9158976F
:1058F0000D816C2D04960E948D2B81E0C3CFDF912A
:10590000CF911F910F91FF90EF90DF90CF90BF90BC
:10591000AF9008952F923F924F925F926F927F9235
:105920008F929F92AF92BF92CF92DF92EF92FF92AF
:105930000F931F93CF93DF93EC016C0126E5C20E0A
:10594000D11CF6011082198E8B01312C212C7C0187
:10595000F0E5EF0EF11C2C0122E6420E511C3C0139
:1059600087E7680E711C5E01E3E6AE0EB11C4E01C6
:10597000F4E68F0E911CF80161918F01EA81FB81A1
:10598000CE0109958F3FFFEF9F0721F18E3F2FEF4B
:10599000920789F3BC01CE010E9461230097B1F008
:1059A000BC01CE010E943823F2016081C7010E9430
:1059B0002A23F3018083F5016081C7010E942A2315
:1059C000F4016081C7010E942A2301C080E0382EC3
:1059D000280ED1CFF6019081992331F0C958DF4FBD
:1059E0008881890F280E2318822DDF91CF911F9176
:1059F0000F91FF90EF90DF90CF90BF90AF909F906E
:105A00008F907F906F905F904F903F902F90089570
:105A10002F923F924F925F926F927F928F929F92BE
:105A2000AF92BF92CF92DF92EF92FF920F931F93AC
:105A3000CF93DF9300D01F92CDB7DEB77C016B010F
:105A40004A010983FC01E659FF4F8081082E000CB2
:105A5000990BFB01F489FF704F2F50E08A01080F6A
:105A6000191FFB0135893F70030F111DF701E95B19
:105A7000FF4F6080712C601A710A460D571D5B83C1
:105A80004A83FB0146895789452B31F04A815B8166
:105A9000480F591F5B834A83F701EA5BFF4F508031
:105AA0005694252C312C222311F0452C01C0412C79
:105AB0005981F601552311F0608D01C064855701AD
:105AC000F4E0AF0EB11CC5010E94842A252D462D9D
:105AD000642DC5010E948E2A3981F601332311F00D
